{
  "_format": "hh-sol-artifact-1",
  "contractName": "ConsumerContract",
  "sourceName": "contracts/ModeratorContract.sol",
  "abi": [
    {
      "inputs": [],
      "stateMutability": "nonpayable",
      "type": "constructor"
    },
    {
      "anonymous": false,
      "inputs": [
        {
          "indexed": true,
          "internalType": "bytes32",
          "name": "id",
          "type": "bytes32"
        }
      ],
      "name": "ChainlinkCancelled",
      "type": "event"
    },
    {
      "anonymous": false,
      "inputs": [
        {
          "indexed": true,
          "internalType": "bytes32",
          "name": "id",
          "type": "bytes32"
        }
      ],
      "name": "ChainlinkFulfilled",
      "type": "event"
    },
    {
      "anonymous": false,
      "inputs": [
        {
          "indexed": true,
          "internalType": "bytes32",
          "name": "id",
          "type": "bytes32"
        }
      ],
      "name": "ChainlinkRequested",
      "type": "event"
    },
    {
      "anonymous": false,
      "inputs": [
        {
          "indexed": true,
          "internalType": "address",
          "name": "from",
          "type": "address"
        },
        {
          "indexed": true,
          "internalType": "address",
          "name": "to",
          "type": "address"
        }
      ],
      "name": "OwnershipTransferRequested",
      "type": "event"
    },
    {
      "anonymous": false,
      "inputs": [
        {
          "indexed": true,
          "internalType": "address",
          "name": "from",
          "type": "address"
        },
        {
          "indexed": true,
          "internalType": "address",
          "name": "to",
          "type": "address"
        }
      ],
      "name": "OwnershipTransferred",
      "type": "event"
    },
    {
      "anonymous": false,
      "inputs": [
        {
          "indexed": true,
          "internalType": "bytes32",
          "name": "requestId",
          "type": "bytes32"
        },
        {
          "indexed": true,
          "internalType": "string",
          "name": "response",
          "type": "string"
        }
      ],
      "name": "RequestForInfoFulfilled",
      "type": "event"
    },
    {
      "inputs": [],
      "name": "CreateInfo",
      "outputs": [
        {
          "internalType": "string",
          "name": "",
          "type": "string"
        }
      ],
      "stateMutability": "view",
      "type": "function"
    },
    {
      "inputs": [],
      "name": "DeleteInfo",
      "outputs": [
        {
          "internalType": "string",
          "name": "",
          "type": "string"
        }
      ],
      "stateMutability": "view",
      "type": "function"
    },
    {
      "inputs": [],
      "name": "acceptOwnership",
      "outputs": [],
      "stateMutability": "nonpayable",
      "type": "function"
    },
    {
      "inputs": [
        {
          "internalType": "bytes32",
          "name": "_requestId",
          "type": "bytes32"
        },
        {
          "internalType": "uint256",
          "name": "_payment",
          "type": "uint256"
        },
        {
          "internalType": "bytes4",
          "name": "_callbackFunctionId",
          "type": "bytes4"
        },
        {
          "internalType": "uint256",
          "name": "_expiration",
          "type": "uint256"
        }
      ],
      "name": "cancelRequest",
      "outputs": [],
      "stateMutability": "nonpayable",
      "type": "function"
    },
    {
      "inputs": [],
      "name": "contractBalances",
      "outputs": [
        {
          "internalType": "uint256",
          "name": "eth",
          "type": "uint256"
        },
        {
          "internalType": "uint256",
          "name": "link",
          "type": "uint256"
        }
      ],
      "stateMutability": "view",
      "type": "function"
    },
    {
      "inputs": [
        {
          "internalType": "address",
          "name": "_oracle",
          "type": "address"
        },
        {
          "internalType": "string",
          "name": "_jobId",
          "type": "string"
        },
        {
          "internalType": "string",
          "name": "email",
          "type": "string"
        }
      ],
      "name": "deleteUser",
      "outputs": [],
      "stateMutability": "nonpayable",
      "type": "function"
    },
    {
      "inputs": [
        {
          "internalType": "bytes32",
          "name": "_requestId",
          "type": "bytes32"
        },
        {
          "internalType": "string",
          "name": "_info",
          "type": "string"
        }
      ],
      "name": "fulfillDeleteUser",
      "outputs": [],
      "stateMutability": "nonpayable",
      "type": "function"
    },
    {
      "inputs": [
        {
          "internalType": "bytes32",
          "name": "_requestId",
          "type": "bytes32"
        },
        {
          "internalType": "string",
          "name": "_info",
          "type": "string"
        }
      ],
      "name": "fulfillRegisterUser",
      "outputs": [],
      "stateMutability": "nonpayable",
      "type": "function"
    },
    {
      "inputs": [
        {
          "internalType": "bytes32",
          "name": "_requestId",
          "type": "bytes32"
        },
        {
          "internalType": "string",
          "name": "_info",
          "type": "string"
        }
      ],
      "name": "fulfillgetPriviliges",
      "outputs": [],
      "stateMutability": "nonpayable",
      "type": "function"
    },
    {
      "inputs": [
        {
          "internalType": "bytes32",
          "name": "_requestId",
          "type": "bytes32"
        },
        {
          "internalType": "string",
          "name": "_info",
          "type": "string"
        }
      ],
      "name": "fulfillsetPriviliges",
      "outputs": [],
      "stateMutability": "nonpayable",
      "type": "function"
    },
    {
      "inputs": [],
      "name": "getChainlinkToken",
      "outputs": [
        {
          "internalType": "address",
          "name": "",
          "type": "address"
        }
      ],
      "stateMutability": "view",
      "type": "function"
    },
    {
      "inputs": [
        {
          "internalType": "address",
          "name": "_oracle",
          "type": "address"
        },
        {
          "internalType": "string",
          "name": "_jobId",
          "type": "string"
        },
        {
          "internalType": "string",
          "name": "email",
          "type": "string"
        },
        {
          "internalType": "string",
          "name": "university",
          "type": "string"
        }
      ],
      "name": "getPrivileges",
      "outputs": [],
      "stateMutability": "nonpayable",
      "type": "function"
    },
    {
      "inputs": [],
      "name": "owner",
      "outputs": [
        {
          "internalType": "address",
          "name": "",
          "type": "address"
        }
      ],
      "stateMutability": "view",
      "type": "function"
    },
    {
      "inputs": [],
      "name": "priviligesInfo",
      "outputs": [
        {
          "internalType": "string",
          "name": "",
          "type": "string"
        }
      ],
      "stateMutability": "view",
      "type": "function"
    },
    {
      "inputs": [
        {
          "internalType": "address",
          "name": "_oracle",
          "type": "address"
        },
        {
          "internalType": "string",
          "name": "_jobId",
          "type": "string"
        },
        {
          "internalType": "string",
          "name": "email",
          "type": "string"
        },
        {
          "internalType": "string",
          "name": "password",
          "type": "string"
        }
      ],
      "name": "registerUser",
      "outputs": [],
      "stateMutability": "nonpayable",
      "type": "function"
    },
    {
      "inputs": [
        {
          "internalType": "address",
          "name": "_oracle",
          "type": "address"
        },
        {
          "internalType": "string",
          "name": "_jobId",
          "type": "string"
        },
        {
          "internalType": "string",
          "name": "email",
          "type": "string"
        },
        {
          "internalType": "string",
          "name": "university",
          "type": "string"
        },
        {
          "internalType": "string",
          "name": "rightName",
          "type": "string"
        },
        {
          "internalType": "string",
          "name": "rightValue",
          "type": "string"
        }
      ],
      "name": "setPrivilige",
      "outputs": [],
      "stateMutability": "nonpayable",
      "type": "function"
    },
    {
      "inputs": [
        {
          "internalType": "address",
          "name": "to",
          "type": "address"
        }
      ],
      "name": "transferOwnership",
      "outputs": [],
      "stateMutability": "nonpayable",
      "type": "function"
    },
    {
      "inputs": [],
      "name": "withdrawBalance",
      "outputs": [],
      "stateMutability": "nonpayable",
      "type": "function"
    },
    {
      "inputs": [],
      "name": "withdrawLink",
      "outputs": [],
      "stateMutability": "nonpayable",
      "type": "function"
    }
  ],
  "bytecode": "0x608060405260016004553480156200001657600080fd5b50338060008073ffffffffffffffffffffffffffffffffffffffff168273ffffffffffffffffffffffffffffffffffffffff16036200008c576040517f08c379a0000000000000000000000000000000000000000000000000000000008152600401620000839062000318565b60405180910390fd5b81600660006101000a81548173ffffffffffffffffffffffffffffffffffffffff021916908373ffffffffffffffffffffffffffffffffffffffff160217905550600073ffffffffffffffffffffffffffffffffffffffff168173ffffffffffffffffffffffffffffffffffffffff1614620001145762000113816200014260201b60201c565b5b5050506200013c73326c977e6efc84e512bb9c30f76e30c160ed06fb6200027360201b60201c565b620003ac565b3373ffffffffffffffffffffffffffffffffffffffff168173ffffffffffffffffffffffffffffffffffffffff1603620001b3576040517f08c379a0000000000000000000000000000000000000000000000000000000008152600401620001aa906200038a565b60405180910390fd5b80600760006101000a81548173ffffffffffffffffffffffffffffffffffffffff021916908373ffffffffffffffffffffffffffffffffffffffff1602179055508073ffffffffffffffffffffffffffffffffffffffff16600660009054906101000a900473ffffffffffffffffffffffffffffffffffffffff1673ffffffffffffffffffffffffffffffffffffffff167fed8889f560326eb138920d842192f0eb3dd22b4f139c87a2c57538e05bae127860405160405180910390a350565b80600260006101000a81548173ffffffffffffffffffffffffffffffffffffffff021916908373ffffffffffffffffffffffffffffffffffffffff16021790555050565b600082825260208201905092915050565b7f43616e6e6f7420736574206f776e657220746f207a65726f0000000000000000600082015250565b600062000300601883620002b7565b91506200030d82620002c8565b602082019050919050565b600060208201905081810360008301526200033381620002f1565b9050919050565b7f43616e6e6f74207472616e7366657220746f2073656c66000000000000000000600082015250565b600062000372601783620002b7565b91506200037f826200033a565b602082019050919050565b60006020820190508181036000830152620003a58162000363565b9050919050565b6130a980620003bc6000396000f3fe608060405234801561001057600080fd5b50600436106101205760003560e01c806379ba5097116100ad578063ca39d15711610071578063ca39d15714610284578063ec65d0f8146102a0578063f2fde38b146102bc578063fe69c296146102d8578063fee00e58146102f457610120565b806379ba50971461021a5780638da5cb5b146102245780638dc654a21461024257806394dd80751461024c5780639ca2fd381461026857610120565b80631c4b63e0116100f45780631c4b63e0146101995780632163885a146101b75780633c2a22a0146101d65780634eb44fc4146101f45780635fd8c7101461021057610120565b80627a82de1461012557806304a1fd7b1461014357806306c82e421461015f578063165d35e11461017b575b600080fd5b61012d610310565b60405161013a9190611e62565b60405180910390f35b61015d60048036038101906101589190612003565b61039e565b005b610179600480360381019061017491906120bd565b6104fb565b005b610183610671565b60405161019091906121e5565b60405180910390f35b6101a1610680565b6040516101ae9190611e62565b60405180910390f35b6101bf61070e565b6040516101cd929190612219565b60405180910390f35b6101de6107a1565b6040516101eb9190611e62565b60405180910390f35b61020e60048036038101906102099190612242565b61082f565b005b61021861090f565b005b610222610960565b005b61022c610af7565b60405161023991906121e5565b60405180910390f35b61024a610b21565b005b61026660048036038101906102619190612003565b610c6e565b005b610282600480360381019061027d91906122fd565b610dcb565b005b61029e60048036038101906102999190612003565b610e60565b005b6102ba60048036038101906102b5919061240c565b610fbd565b005b6102d660048036038101906102d19190612473565b610fd7565b005b6102f260048036038101906102ed9190612242565b610feb565b005b61030e60048036038101906103099190612003565b6110cb565b005b6009805461031d906124cf565b80601f0160208091040260200160405190810160405280929190818152602001828054610349906124cf565b80156103965780601f1061036b57610100808354040283529160200191610396565b820191906000526020600020905b81548152906001019060200180831161037957829003601f168201915b505050505081565b816005600082815260200190815260200160002060009054906101000a900473ffffffffffffffffffffffffffffffffffffffff1673ffffffffffffffffffffffffffffffffffffffff163373ffffffffffffffffffffffffffffffffffffffff1614610440576040517f08c379a000000000000000000000000000000000000000000000000000000000815260040161043790612572565b60405180910390fd5b6005600082815260200190815260200160002060006101000a81549073ffffffffffffffffffffffffffffffffffffffff0219169055807f7cc135e0cebb02c3480ae5d74d377283180a2601f8f644edf7987b009316c63a60405160405180910390a2816040516104b191906125ce565b6040518091039020837f05d0ea3a4c0dc17f032ba24393c968625c8648a6d6afc1053e8765b0c9519d5a60405160405180910390a381600990816104f59190612791565b50505050565b610503611228565b600061051e610511876112ba565b63fee00e5860e01b6112e3565b905061056a6040518060400160405280600581526020017f656d61696c00000000000000000000000000000000000000000000000000000081525086836113139092919063ffffffff16565b6105b46040518060400160405280600a81526020017f756e69766572736974790000000000000000000000000000000000000000000081525085836113139092919063ffffffff16565b6105fe6040518060400160405280600981526020017f72696768744e616d65000000000000000000000000000000000000000000000081525084836113139092919063ffffffff16565b6106486040518060400160405280600a81526020017f726967687456616c75650000000000000000000000000000000000000000000081525083836113139092919063ffffffff16565b6106678782670de0b6b3a764000060016106629190612892565b611346565b5050505050505050565b600061067b611410565b905090565b6008805461068d906124cf565b80601f01602080910402602001604051908101604052809291908181526020018280546106b9906124cf565b80156107065780601f106106db57610100808354040283529160200191610706565b820191906000526020600020905b8154815290600101906020018083116106e957829003601f168201915b505050505081565b600080479150600061071e611410565b90508073ffffffffffffffffffffffffffffffffffffffff166370a08231306040518263ffffffff1660e01b815260040161075991906121e5565b602060405180830381865afa158015610776573d6000803e3d6000fd5b505050506040513d601f19601f8201168201806040525081019061079a91906128e9565b9150509091565b600a80546107ae906124cf565b80601f01602080910402602001604051908101604052809291908181526020018280546107da906124cf565b80156108275780601f106107fc57610100808354040283529160200191610827565b820191906000526020600020905b81548152906001019060200180831161080a57829003601f168201915b505050505081565b610837611228565b6000610852610845856112ba565b6394dd807560e01b6112e3565b905061089e6040518060400160405280600581526020017f656d61696c00000000000000000000000000000000000000000000000000000081525084836113139092919063ffffffff16565b6108e86040518060400160405280600a81526020017f756e69766572736974790000000000000000000000000000000000000000000081525083836113139092919063ffffffff16565b6109078582670de0b6b3a764000060016109029190612892565b611346565b505050505050565b610917611228565b3373ffffffffffffffffffffffffffffffffffffffff166108fc479081150290604051600060405180830381858888f1935050505015801561095d573d6000803e3d6000fd5b50565b600760009054906101000a900473ffffffffffffffffffffffffffffffffffffffff1673ffffffffffffffffffffffffffffffffffffffff163373ffffffffffffffffffffffffffffffffffffffff16146109f0576040517f08c379a00000000000000000000000000000000000000000000000000000000081526004016109e790612962565b60405180910390fd5b6000600660009054906101000a900473ffffffffffffffffffffffffffffffffffffffff16905033600660006101000a81548173ffffffffffffffffffffffffffffffffffffffff021916908373ffffffffffffffffffffffffffffffffffffffff1602179055506000600760006101000a81548173ffffffffffffffffffffffffffffffffffffffff021916908373ffffffffffffffffffffffffffffffffffffffff1602179055503373ffffffffffffffffffffffffffffffffffffffff168173ffffffffffffffffffffffffffffffffffffffff167f8be0079c531659141344cd1fd0a4f28419497f9722a3daafe3b4186f6b6457e060405160405180910390a350565b6000600660009054906101000a900473ffffffffffffffffffffffffffffffffffffffff16905090565b610b29611228565b6000610b33611410565b90508073ffffffffffffffffffffffffffffffffffffffff1663a9059cbb338373ffffffffffffffffffffffffffffffffffffffff166370a08231306040518263ffffffff1660e01b8152600401610b8b91906121e5565b602060405180830381865afa158015610ba8573d6000803e3d6000fd5b505050506040513d601f19601f82011682018060405250810190610bcc91906128e9565b6040518363ffffffff1660e01b8152600401610be9929190612982565b6020604051808303816000875af1158015610c08573d6000803e3d6000fd5b505050506040513d601f19601f82011682018060405250810190610c2c91906129e3565b610c6b576040517f08c379a0000000000000000000000000000000000000000000000000000000008152600401610c6290612a5c565b60405180910390fd5b50565b816005600082815260200190815260200160002060009054906101000a900473ffffffffffffffffffffffffffffffffffffffff1673ffffffffffffffffffffffffffffffffffffffff163373ffffffffffffffffffffffffffffffffffffffff1614610d10576040517f08c379a0000000000000000000000000000000000000000000000000000000008152600401610d0790612572565b60405180910390fd5b6005600082815260200190815260200160002060006101000a81549073ffffffffffffffffffffffffffffffffffffffff0219169055807f7cc135e0cebb02c3480ae5d74d377283180a2601f8f644edf7987b009316c63a60405160405180910390a281604051610d8191906125ce565b6040518091039020837f05d0ea3a4c0dc17f032ba24393c968625c8648a6d6afc1053e8765b0c9519d5a60405160405180910390a381600a9081610dc59190612791565b50505050565b610dd3611228565b6000610dee610de1846112ba565b6304a1fd7b60e01b6112e3565b9050610e3a6040518060400160405280600581526020017f656d61696c00000000000000000000000000000000000000000000000000000081525083836113139092919063ffffffff16565b610e598482670de0b6b3a76400006001610e549190612892565b611346565b5050505050565b816005600082815260200190815260200160002060009054906101000a900473ffffffffffffffffffffffffffffffffffffffff1673ffffffffffffffffffffffffffffffffffffffff163373ffffffffffffffffffffffffffffffffffffffff1614610f02576040517f08c379a0000000000000000000000000000000000000000000000000000000008152600401610ef990612572565b60405180910390fd5b6005600082815260200190815260200160002060006101000a81549073ffffffffffffffffffffffffffffffffffffffff0219169055807f7cc135e0cebb02c3480ae5d74d377283180a2601f8f644edf7987b009316c63a60405160405180910390a281604051610f7391906125ce565b6040518091039020837f05d0ea3a4c0dc17f032ba24393c968625c8648a6d6afc1053e8765b0c9519d5a60405160405180910390a38160089081610fb79190612791565b50505050565b610fc5611228565b610fd18484848461143a565b50505050565b610fdf611228565b610fe88161154d565b50565b610ff3611228565b600061100e611001856112ba565b63ca39d15760e01b6112e3565b905061105a6040518060400160405280600581526020017f656d61696c00000000000000000000000000000000000000000000000000000081525084836113139092919063ffffffff16565b6110a46040518060400160405280600881526020017f70617373776f726400000000000000000000000000000000000000000000000081525083836113139092919063ffffffff16565b6110c38582670de0b6b3a764000060016110be9190612892565b611346565b505050505050565b816005600082815260200190815260200160002060009054906101000a900473ffffffffffffffffffffffffffffffffffffffff1673ffffffffffffffffffffffffffffffffffffffff163373ffffffffffffffffffffffffffffffffffffffff161461116d576040517f08c379a000000000000000000000000000000000000000000000000000000000815260040161116490612572565b60405180910390fd5b6005600082815260200190815260200160002060006101000a81549073ffffffffffffffffffffffffffffffffffffffff0219169055807f7cc135e0cebb02c3480ae5d74d377283180a2601f8f644edf7987b009316c63a60405160405180910390a2816040516111de91906125ce565b6040518091039020837f05d0ea3a4c0dc17f032ba24393c968625c8648a6d6afc1053e8765b0c9519d5a60405160405180910390a381600a90816112229190612791565b50505050565b600660009054906101000a900473ffffffffffffffffffffffffffffffffffffffff1673ffffffffffffffffffffffffffffffffffffffff163373ffffffffffffffffffffffffffffffffffffffff16146112b8576040517f08c379a00000000000000000000000000000000000000000000000000000000081526004016112af90612ac8565b60405180910390fd5b565b60008082905060008151036112d5576000801b9150506112de565b60208301519150505b919050565b6112eb611d4b565b6112f3611d4b565b61130a8430858461167b909392919063ffffffff16565b91505092915050565b61132a82846080015161172b90919063ffffffff16565b61134181846080015161172b90919063ffffffff16565b505050565b600080600454905060018161135b9190612ae8565b6004819055506000633c6d41b960e01b600080876000015188604001518660028b608001516000015160405160240161139a9796959493929190612b8f565b604051602081830303815290604052907bffffffffffffffffffffffffffffffffffffffffffffffffffffffff19166020820180517bffffffffffffffffffffffffffffffffffffffffffffffffffffffff8381831617835250505050905061140586838684611750565b925050509392505050565b6000600260009054906101000a900473ffffffffffffffffffffffffffffffffffffffff16905090565b60006005600086815260200190815260200160002060009054906101000a900473ffffffffffffffffffffffffffffffffffffffff1690506005600086815260200190815260200160002060006101000a81549073ffffffffffffffffffffffffffffffffffffffff0219169055847fe1fe3afa0f7f761ff0a8b89086790efd5140d2907ebd5b7ff6bfcb5e075fd4c560405160405180910390a28073ffffffffffffffffffffffffffffffffffffffff16636ee4d553868686866040518563ffffffff1660e01b81526004016115149493929190612c05565b600060405180830381600087803b15801561152e57600080fd5b505af1158015611542573d6000803e3d6000fd5b505050505050505050565b3373ffffffffffffffffffffffffffffffffffffffff168173ffffffffffffffffffffffffffffffffffffffff16036115bb576040517f08c379a00000000000000000000000000000000000000000000000000000000081526004016115b290612c96565b60405180910390fd5b80600760006101000a81548173ffffffffffffffffffffffffffffffffffffffff021916908373ffffffffffffffffffffffffffffffffffffffff1602179055508073ffffffffffffffffffffffffffffffffffffffff16600660009054906101000a900473ffffffffffffffffffffffffffffffffffffffff1673ffffffffffffffffffffffffffffffffffffffff167fed8889f560326eb138920d842192f0eb3dd22b4f139c87a2c57538e05bae127860405160405180910390a350565b611683611d4b565b61169385608001516101006118e5565b508385600001818152505082856020019073ffffffffffffffffffffffffffffffffffffffff16908173ffffffffffffffffffffffffffffffffffffffff16815250508185604001907bffffffffffffffffffffffffffffffffffffffffffffffffffffffff191690817bffffffffffffffffffffffffffffffffffffffffffffffffffffffff191681525050849050949350505050565b611738826003835161194f565b61174b8183611ad490919063ffffffff16565b505050565b60003084604051602001611765929190612d65565b604051602081830303815290604052805190602001209050846005600083815260200190815260200160002060006101000a81548173ffffffffffffffffffffffffffffffffffffffff021916908373ffffffffffffffffffffffffffffffffffffffff160217905550807fb5e6e01e79f91267dc17b4e6314d5d4d03593d2ceee0fbb452b750bd70ea5af960405160405180910390a2600260009054906101000a900473ffffffffffffffffffffffffffffffffffffffff1673ffffffffffffffffffffffffffffffffffffffff16634000aea08685856040518463ffffffff1660e01b815260040161185b93929190612d91565b6020604051808303816000875af115801561187a573d6000803e3d6000fd5b505050506040513d601f19601f8201168201806040525081019061189e91906129e3565b6118dd576040517f08c379a00000000000000000000000000000000000000000000000000000000081526004016118d490612e41565b60405180910390fd5b949350505050565b6118ed611db8565b60006020836118fc9190612e90565b146119285760208261190e9190612e90565b602061191a9190612ec1565b826119259190612ae8565b91505b81836020018181525050604051808452600081528281016020016040525082905092915050565b60178167ffffffffffffffff1611611986576119808160058460ff16901b60ff161784611af690919063ffffffff16565b50611acf565b60ff8167ffffffffffffffff16116119dc576119b5601860058460ff16901b1784611af690919063ffffffff16565b506119d68167ffffffffffffffff16600185611b169092919063ffffffff16565b50611ace565b61ffff8167ffffffffffffffff1611611a3357611a0c601960058460ff16901b1784611af690919063ffffffff16565b50611a2d8167ffffffffffffffff16600285611b169092919063ffffffff16565b50611acd565b63ffffffff8167ffffffffffffffff1611611a8c57611a65601a60058460ff16901b1784611af690919063ffffffff16565b50611a868167ffffffffffffffff16600485611b169092919063ffffffff16565b50611acc565b611aa9601b60058460ff16901b1784611af690919063ffffffff16565b50611aca8167ffffffffffffffff16600885611b169092919063ffffffff16565b505b5b5b5b505050565b611adc611db8565b611aee83846000015151848551611b38565b905092915050565b611afe611db8565b611b0e8384600001515184611c27565b905092915050565b611b1e611db8565b611b2f848560000151518585611c7d565b90509392505050565b611b40611db8565b8251821115611b4e57600080fd5b84602001518285611b5f9190612ae8565b1115611b9457611b93856002611b8488602001518887611b7f9190612ae8565b611d0b565b611b8e9190612892565b611d27565b5b600080865180518760208301019350808887011115611bb35787860182525b60208701925050505b60208410611bfa5780518252602082611bd59190612ae8565b9150602081611be49190612ae8565b9050602084611bf39190612ec1565b9350611bbc565b60006001856020036101000a03905080198251168184511681811785525050508692505050949350505050565b611c2f611db8565b83602001518310611c5557611c548460028660200151611c4f9190612892565b611d27565b5b83518051602085830101848153818603611c70576001820183525b5050508390509392505050565b611c85611db8565b84602001518483611c969190612ae8565b1115611cbe57611cbd8560028685611cae9190612ae8565b611cb89190612892565b611d27565b5b6000600183610100611cd09190613028565b611cda9190612ec1565b90508551838682010185831982511617815281518588011115611cfd5784870182525b505085915050949350505050565b600081831115611d1d57829050611d21565b8190505b92915050565b600082600001519050611d3a83836118e5565b50611d458382611ad4565b50505050565b6040518060a0016040528060008019168152602001600073ffffffffffffffffffffffffffffffffffffffff16815260200160007bffffffffffffffffffffffffffffffffffffffffffffffffffffffff1916815260200160008152602001611db2611db8565b81525090565b604051806040016040528060608152602001600081525090565b600081519050919050565b600082825260208201905092915050565b60005b83811015611e0c578082015181840152602081019050611df1565b60008484015250505050565b6000601f19601f8301169050919050565b6000611e3482611dd2565b611e3e8185611ddd565b9350611e4e818560208601611dee565b611e5781611e18565b840191505092915050565b60006020820190508181036000830152611e7c8184611e29565b905092915050565b6000604051905090565b600080fd5b600080fd5b6000819050919050565b611eab81611e98565b8114611eb657600080fd5b50565b600081359050611ec881611ea2565b92915050565b600080fd5b600080fd5b7f4e487b7100000000000000000000000000000000000000000000000000000000600052604160045260246000fd5b611f1082611e18565b810181811067ffffffffffffffff82111715611f2f57611f2e611ed8565b5b80604052505050565b6000611f42611e84565b9050611f4e8282611f07565b919050565b600067ffffffffffffffff821115611f6e57611f6d611ed8565b5b611f7782611e18565b9050602081019050919050565b82818337600083830152505050565b6000611fa6611fa184611f53565b611f38565b905082815260208101848484011115611fc257611fc1611ed3565b5b611fcd848285611f84565b509392505050565b600082601f830112611fea57611fe9611ece565b5b8135611ffa848260208601611f93565b91505092915050565b6000806040838503121561201a57612019611e8e565b5b600061202885828601611eb9565b925050602083013567ffffffffffffffff81111561204957612048611e93565b5b61205585828601611fd5565b9150509250929050565b600073ffffffffffffffffffffffffffffffffffffffff82169050919050565b600061208a8261205f565b9050919050565b61209a8161207f565b81146120a557600080fd5b50565b6000813590506120b781612091565b92915050565b60008060008060008060c087890312156120da576120d9611e8e565b5b60006120e889828a016120a8565b965050602087013567ffffffffffffffff81111561210957612108611e93565b5b61211589828a01611fd5565b955050604087013567ffffffffffffffff81111561213657612135611e93565b5b61214289828a01611fd5565b945050606087013567ffffffffffffffff81111561216357612162611e93565b5b61216f89828a01611fd5565b935050608087013567ffffffffffffffff8111156121905761218f611e93565b5b61219c89828a01611fd5565b92505060a087013567ffffffffffffffff8111156121bd576121bc611e93565b5b6121c989828a01611fd5565b9150509295509295509295565b6121df8161207f565b82525050565b60006020820190506121fa60008301846121d6565b92915050565b6000819050919050565b61221381612200565b82525050565b600060408201905061222e600083018561220a565b61223b602083018461220a565b9392505050565b6000806000806080858703121561225c5761225b611e8e565b5b600061226a878288016120a8565b945050602085013567ffffffffffffffff81111561228b5761228a611e93565b5b61229787828801611fd5565b935050604085013567ffffffffffffffff8111156122b8576122b7611e93565b5b6122c487828801611fd5565b925050606085013567ffffffffffffffff8111156122e5576122e4611e93565b5b6122f187828801611fd5565b91505092959194509250565b60008060006060848603121561231657612315611e8e565b5b6000612324868287016120a8565b935050602084013567ffffffffffffffff81111561234557612344611e93565b5b61235186828701611fd5565b925050604084013567ffffffffffffffff81111561237257612371611e93565b5b61237e86828701611fd5565b9150509250925092565b61239181612200565b811461239c57600080fd5b50565b6000813590506123ae81612388565b92915050565b60007fffffffff0000000000000000000000000000000000000000000000000000000082169050919050565b6123e9816123b4565b81146123f457600080fd5b50565b600081359050612406816123e0565b92915050565b6000806000806080858703121561242657612425611e8e565b5b600061243487828801611eb9565b94505060206124458782880161239f565b9350506040612456878288016123f7565b92505060606124678782880161239f565b91505092959194509250565b60006020828403121561248957612488611e8e565b5b6000612497848285016120a8565b91505092915050565b7f4e487b7100000000000000000000000000000000000000000000000000000000600052602260045260246000fd5b600060028204905060018216806124e757607f821691505b6020821081036124fa576124f96124a0565b5b50919050565b7f536f75726365206d75737420626520746865206f7261636c65206f662074686560008201527f2072657175657374000000000000000000000000000000000000000000000000602082015250565b600061255c602883611ddd565b915061256782612500565b604082019050919050565b6000602082019050818103600083015261258b8161254f565b9050919050565b600081905092915050565b60006125a882611dd2565b6125b28185612592565b93506125c2818560208601611dee565b80840191505092915050565b60006125da828461259d565b915081905092915050565b60008190508160005260206000209050919050565b60006020601f8301049050919050565b600082821b905092915050565b6000600883026126477fffffffffffffffffffffffffffffffffffffffffffffffffffffffffffffffff8261260a565b612651868361260a565b95508019841693508086168417925050509392505050565b6000819050919050565b600061268e61268961268484612200565b612669565b612200565b9050919050565b6000819050919050565b6126a883612673565b6126bc6126b482612695565b848454612617565b825550505050565b600090565b6126d16126c4565b6126dc81848461269f565b505050565b5b81811015612700576126f56000826126c9565b6001810190506126e2565b5050565b601f82111561274557612716816125e5565b61271f846125fa565b8101602085101561272e578190505b61274261273a856125fa565b8301826126e1565b50505b505050565b600082821c905092915050565b60006127686000198460080261274a565b1980831691505092915050565b60006127818383612757565b9150826002028217905092915050565b61279a82611dd2565b67ffffffffffffffff8111156127b3576127b2611ed8565b5b6127bd82546124cf565b6127c8828285612704565b600060209050601f8311600181146127fb57600084156127e9578287015190505b6127f38582612775565b86555061285b565b601f198416612809866125e5565b60005b828110156128315784890151825560018201915060208501945060208101905061280c565b8683101561284e578489015161284a601f891682612757565b8355505b6001600288020188555050505b505050505050565b7f4e487b7100000000000000000000000000000000000000000000000000000000600052601160045260246000fd5b600061289d82612200565b91506128a883612200565b92508282026128b681612200565b915082820484148315176128cd576128cc612863565b5b5092915050565b6000815190506128e381612388565b92915050565b6000602082840312156128ff576128fe611e8e565b5b600061290d848285016128d4565b91505092915050565b7f4d7573742062652070726f706f736564206f776e657200000000000000000000600082015250565b600061294c601683611ddd565b915061295782612916565b602082019050919050565b6000602082019050818103600083015261297b8161293f565b9050919050565b600060408201905061299760008301856121d6565b6129a4602083018461220a565b9392505050565b60008115159050919050565b6129c0816129ab565b81146129cb57600080fd5b50565b6000815190506129dd816129b7565b92915050565b6000602082840312156129f9576129f8611e8e565b5b6000612a07848285016129ce565b91505092915050565b7f556e61626c6520746f207472616e73666572204c696e6b000000000000000000600082015250565b6000612a46601783611ddd565b9150612a5182612a10565b602082019050919050565b60006020820190508181036000830152612a7581612a39565b9050919050565b7f4f6e6c792063616c6c61626c65206279206f776e657200000000000000000000600082015250565b6000612ab2601683611ddd565b9150612abd82612a7c565b602082019050919050565b60006020820190508181036000830152612ae181612aa5565b9050919050565b6000612af382612200565b9150612afe83612200565b9250828201905080821115612b1657612b15612863565b5b92915050565b612b2581611e98565b82525050565b612b34816123b4565b82525050565b600081519050919050565b600082825260208201905092915050565b6000612b6182612b3a565b612b6b8185612b45565b9350612b7b818560208601611dee565b612b8481611e18565b840191505092915050565b600060e082019050612ba4600083018a6121d6565b612bb1602083018961220a565b612bbe6040830188612b1c565b612bcb6060830187612b2b565b612bd8608083018661220a565b612be560a083018561220a565b81810360c0830152612bf78184612b56565b905098975050505050505050565b6000608082019050612c1a6000830187612b1c565b612c27602083018661220a565b612c346040830185612b2b565b612c41606083018461220a565b95945050505050565b7f43616e6e6f74207472616e7366657220746f2073656c66000000000000000000600082015250565b6000612c80601783611ddd565b9150612c8b82612c4a565b602082019050919050565b60006020820190508181036000830152612caf81612c73565b9050919050565b6000612cd1612ccc612cc78461205f565b612669565b61205f565b9050919050565b6000612ce382612cb6565b9050919050565b6000612cf582612cd8565b9050919050565b60008160601b9050919050565b6000612d1482612cfc565b9050919050565b6000612d2682612d09565b9050919050565b612d3e612d3982612cea565b612d1b565b82525050565b6000819050919050565b612d5f612d5a82612200565b612d44565b82525050565b6000612d718285612d2d565b601482019150612d818284612d4e565b6020820191508190509392505050565b6000606082019050612da660008301866121d6565b612db3602083018561220a565b8181036040830152612dc58184612b56565b9050949350505050565b7f756e61626c6520746f207472616e73666572416e6443616c6c20746f206f726160008201527f636c650000000000000000000000000000000000000000000000000000000000602082015250565b6000612e2b602383611ddd565b9150612e3682612dcf565b604082019050919050565b60006020820190508181036000830152612e5a81612e1e565b9050919050565b7f4e487b7100000000000000000000000000000000000000000000000000000000600052601260045260246000fd5b6000612e9b82612200565b9150612ea683612200565b925082612eb657612eb5612e61565b5b828206905092915050565b6000612ecc82612200565b9150612ed783612200565b9250828203905081811115612eef57612eee612863565b5b92915050565b60008160011c9050919050565b6000808291508390505b6001851115612f4c57808604811115612f2857612f27612863565b5b6001851615612f375780820291505b8081029050612f4585612ef5565b9450612f0c565b94509492505050565b600082612f655760019050613021565b81612f735760009050613021565b8160018114612f895760028114612f9357612fc2565b6001915050613021565b60ff841115612fa557612fa4612863565b5b8360020a915084821115612fbc57612fbb612863565b5b50613021565b5060208310610133831016604e8410600b8410161715612ff75782820a905083811115612ff257612ff1612863565b5b613021565b6130048484846001612f02565b9250905081840481111561301b5761301a612863565b5b81810290505b9392505050565b600061303382612200565b915061303e83612200565b925061306b7fffffffffffffffffffffffffffffffffffffffffffffffffffffffffffffffff8484612f55565b90509291505056fea2646970667358221220eef45d56a10629c3552a335eb3ba4af06c8a9ae988e25da1334279cf113bb3d264736f6c63430008110033",
  "linkReferences": {},
  "deployedLinkReferences": {}
}