{
  "_format": "hh-sol-artifact-1",
  "contractName": "ClientContract",
  "sourceName": "contracts/ClientContract.sol",
  "abi": [
    {
      "inputs": [],
      "stateMutability": "nonpayable",
      "type": "constructor"
    },
    {
      "anonymous": false,
      "inputs": [
        {
          "indexed": true,
          "internalType": "bytes32",
          "name": "id",
          "type": "bytes32"
        }
      ],
      "name": "ChainlinkCancelled",
      "type": "event"
    },
    {
      "anonymous": false,
      "inputs": [
        {
          "indexed": true,
          "internalType": "bytes32",
          "name": "id",
          "type": "bytes32"
        }
      ],
      "name": "ChainlinkFulfilled",
      "type": "event"
    },
    {
      "anonymous": false,
      "inputs": [
        {
          "indexed": true,
          "internalType": "bytes32",
          "name": "id",
          "type": "bytes32"
        }
      ],
      "name": "ChainlinkRequested",
      "type": "event"
    },
    {
      "anonymous": false,
      "inputs": [
        {
          "indexed": true,
          "internalType": "bytes32",
          "name": "requestId",
          "type": "bytes32"
        },
        {
          "indexed": true,
          "internalType": "string",
          "name": "response",
          "type": "string"
        }
      ],
      "name": "LoginFulfilled",
      "type": "event"
    },
    {
      "anonymous": false,
      "inputs": [
        {
          "indexed": true,
          "internalType": "bytes32",
          "name": "requestId",
          "type": "bytes32"
        },
        {
          "indexed": true,
          "internalType": "string",
          "name": "response",
          "type": "string"
        }
      ],
      "name": "LogoutFulfilled",
      "type": "event"
    },
    {
      "anonymous": false,
      "inputs": [
        {
          "indexed": true,
          "internalType": "address",
          "name": "from",
          "type": "address"
        },
        {
          "indexed": true,
          "internalType": "address",
          "name": "to",
          "type": "address"
        }
      ],
      "name": "OwnershipTransferRequested",
      "type": "event"
    },
    {
      "anonymous": false,
      "inputs": [
        {
          "indexed": true,
          "internalType": "address",
          "name": "from",
          "type": "address"
        },
        {
          "indexed": true,
          "internalType": "address",
          "name": "to",
          "type": "address"
        }
      ],
      "name": "OwnershipTransferred",
      "type": "event"
    },
    {
      "inputs": [],
      "name": "acceptOwnership",
      "outputs": [],
      "stateMutability": "nonpayable",
      "type": "function"
    },
    {
      "inputs": [
        {
          "internalType": "bytes32",
          "name": "_requestId",
          "type": "bytes32"
        },
        {
          "internalType": "uint256",
          "name": "_payment",
          "type": "uint256"
        },
        {
          "internalType": "bytes4",
          "name": "_callbackFunctionId",
          "type": "bytes4"
        },
        {
          "internalType": "uint256",
          "name": "_expiration",
          "type": "uint256"
        }
      ],
      "name": "cancelRequest",
      "outputs": [],
      "stateMutability": "nonpayable",
      "type": "function"
    },
    {
      "inputs": [],
      "name": "contractBalances",
      "outputs": [
        {
          "internalType": "uint256",
          "name": "eth",
          "type": "uint256"
        },
        {
          "internalType": "uint256",
          "name": "link",
          "type": "uint256"
        }
      ],
      "stateMutability": "view",
      "type": "function"
    },
    {
      "inputs": [
        {
          "internalType": "bytes32",
          "name": "_requestId",
          "type": "bytes32"
        },
        {
          "internalType": "string",
          "name": "_info",
          "type": "string"
        }
      ],
      "name": "fulfillLoginUser",
      "outputs": [],
      "stateMutability": "nonpayable",
      "type": "function"
    },
    {
      "inputs": [
        {
          "internalType": "bytes32",
          "name": "_requestId",
          "type": "bytes32"
        },
        {
          "internalType": "string",
          "name": "_info",
          "type": "string"
        }
      ],
      "name": "fulfillLogoutUser",
      "outputs": [],
      "stateMutability": "nonpayable",
      "type": "function"
    },
    {
      "inputs": [],
      "name": "getChainlinkToken",
      "outputs": [
        {
          "internalType": "address",
          "name": "",
          "type": "address"
        }
      ],
      "stateMutability": "view",
      "type": "function"
    },
    {
      "inputs": [],
      "name": "lastLoginInfo",
      "outputs": [
        {
          "internalType": "string",
          "name": "",
          "type": "string"
        }
      ],
      "stateMutability": "view",
      "type": "function"
    },
    {
      "inputs": [],
      "name": "lastLogoutInfo",
      "outputs": [
        {
          "internalType": "string",
          "name": "",
          "type": "string"
        }
      ],
      "stateMutability": "view",
      "type": "function"
    },
    {
      "inputs": [
        {
          "internalType": "address",
          "name": "_oracle",
          "type": "address"
        },
        {
          "internalType": "string",
          "name": "_jobId",
          "type": "string"
        },
        {
          "internalType": "string",
          "name": "email",
          "type": "string"
        },
        {
          "internalType": "string",
          "name": "password",
          "type": "string"
        },
        {
          "internalType": "string",
          "name": "university",
          "type": "string"
        }
      ],
      "name": "loginUser",
      "outputs": [],
      "stateMutability": "nonpayable",
      "type": "function"
    },
    {
      "inputs": [
        {
          "internalType": "address",
          "name": "_oracle",
          "type": "address"
        },
        {
          "internalType": "string",
          "name": "_jobId",
          "type": "string"
        },
        {
          "internalType": "string",
          "name": "email",
          "type": "string"
        }
      ],
      "name": "logoutUser",
      "outputs": [],
      "stateMutability": "nonpayable",
      "type": "function"
    },
    {
      "inputs": [],
      "name": "owner",
      "outputs": [
        {
          "internalType": "address",
          "name": "",
          "type": "address"
        }
      ],
      "stateMutability": "view",
      "type": "function"
    },
    {
      "inputs": [
        {
          "internalType": "address",
          "name": "to",
          "type": "address"
        }
      ],
      "name": "transferOwnership",
      "outputs": [],
      "stateMutability": "nonpayable",
      "type": "function"
    },
    {
      "inputs": [],
      "name": "withdrawBalance",
      "outputs": [],
      "stateMutability": "nonpayable",
      "type": "function"
    },
    {
      "inputs": [],
      "name": "withdrawLink",
      "outputs": [],
      "stateMutability": "nonpayable",
      "type": "function"
    }
  ],
  "bytecode": "0x608060405260016004553480156200001657600080fd5b50338060008073ffffffffffffffffffffffffffffffffffffffff168273ffffffffffffffffffffffffffffffffffffffff16036200008c576040517f08c379a0000000000000000000000000000000000000000000000000000000008152600401620000839062000318565b60405180910390fd5b81600660006101000a81548173ffffffffffffffffffffffffffffffffffffffff021916908373ffffffffffffffffffffffffffffffffffffffff160217905550600073ffffffffffffffffffffffffffffffffffffffff168173ffffffffffffffffffffffffffffffffffffffff1614620001145762000113816200014260201b60201c565b5b5050506200013c73326c977e6efc84e512bb9c30f76e30c160ed06fb6200027360201b60201c565b620003ac565b3373ffffffffffffffffffffffffffffffffffffffff168173ffffffffffffffffffffffffffffffffffffffff1603620001b3576040517f08c379a0000000000000000000000000000000000000000000000000000000008152600401620001aa906200038a565b60405180910390fd5b80600760006101000a81548173ffffffffffffffffffffffffffffffffffffffff021916908373ffffffffffffffffffffffffffffffffffffffff1602179055508073ffffffffffffffffffffffffffffffffffffffff16600660009054906101000a900473ffffffffffffffffffffffffffffffffffffffff1673ffffffffffffffffffffffffffffffffffffffff167fed8889f560326eb138920d842192f0eb3dd22b4f139c87a2c57538e05bae127860405160405180910390a350565b80600260006101000a81548173ffffffffffffffffffffffffffffffffffffffff021916908373ffffffffffffffffffffffffffffffffffffffff16021790555050565b600082825260208201905092915050565b7f43616e6e6f7420736574206f776e657220746f207a65726f0000000000000000600082015250565b600062000300601883620002b7565b91506200030d82620002c8565b602082019050919050565b600060208201905081810360008301526200033381620002f1565b9050919050565b7f43616e6e6f74207472616e7366657220746f2073656c66000000000000000000600082015250565b600062000372601783620002b7565b91506200037f826200033a565b602082019050919050565b60006020820190508181036000830152620003a58162000363565b9050919050565b6129a980620003bc6000396000f3fe608060405234801561001057600080fd5b50600436106100ea5760003560e01c80637735ea391161008c5780638dc654a2116100665780638dc654a2146101ee578063ec65d0f8146101f8578063ecb2188914610214578063f2fde38b14610230576100ea565b80637735ea39146101a857806379ba5097146101c65780638da5cb5b146101d0576100ea565b80633948093e116100c85780633948093e146101485780635afdcacc146101645780635fd8c7101461018057806362b048341461018a576100ea565b8063165d35e1146100ef5780631fb5b8831461010d5780632163885a14610129575b600080fd5b6100f761024c565b60405161010491906117fc565b60405180910390f35b610127600480360381019061012291906119a7565b61025b565b005b6101316103b8565b60405161013f929190611a1c565b60405180910390f35b610162600480360381019061015d9190611a71565b61044b565b005b61017e600480360381019061017991906119a7565b610576565b005b6101886106d3565b005b610192610724565b60405161019f9190611bdb565b60405180910390f35b6101b06107b2565b6040516101bd9190611bdb565b60405180910390f35b6101ce610840565b005b6101d86109d7565b6040516101e591906117fc565b60405180910390f35b6101f6610a01565b005b610212600480360381019061020d9190611c81565b610b4e565b005b61022e60048036038101906102299190611ce8565b610b68565b005b61024a60048036038101906102459190611d73565b610bfd565b005b6000610256610c11565b905090565b816005600082815260200190815260200160002060009054906101000a900473ffffffffffffffffffffffffffffffffffffffff1673ffffffffffffffffffffffffffffffffffffffff163373ffffffffffffffffffffffffffffffffffffffff16146102fd576040517f08c379a00000000000000000000000000000000000000000000000000000000081526004016102f490611e12565b60405180910390fd5b6005600082815260200190815260200160002060006101000a81549073ffffffffffffffffffffffffffffffffffffffff0219169055807f7cc135e0cebb02c3480ae5d74d377283180a2601f8f644edf7987b009316c63a60405160405180910390a28160405161036e9190611e6e565b6040518091039020837fad0e5979a09d4734c18b5a70a7639fef1d1ca3ff30aa2bd05a478287241f18ef60405160405180910390a381600990816103b29190612091565b50505050565b60008047915060006103c8610c11565b90508073ffffffffffffffffffffffffffffffffffffffff166370a08231306040518263ffffffff1660e01b815260040161040391906117fc565b602060405180830381865afa158015610420573d6000803e3d6000fd5b505050506040513d601f19601f820116820180604052508101906104449190612178565b9150509091565b610453610c3b565b600061046e61046186610ccd565b635afdcacc60e01b610cf6565b90506104ba6040518060400160405280600581526020017f656d61696c0000000000000000000000000000000000000000000000000000008152508583610d269092919063ffffffff16565b6105046040518060400160405280600881526020017f70617373776f72640000000000000000000000000000000000000000000000008152508483610d269092919063ffffffff16565b61054e6040518060400160405280600a81526020017f756e6976657273697479000000000000000000000000000000000000000000008152508383610d269092919063ffffffff16565b61056d8682670de0b6b3a7640000600161056891906121d4565b610d59565b50505050505050565b816005600082815260200190815260200160002060009054906101000a900473ffffffffffffffffffffffffffffffffffffffff1673ffffffffffffffffffffffffffffffffffffffff163373ffffffffffffffffffffffffffffffffffffffff1614610618576040517f08c379a000000000000000000000000000000000000000000000000000000000815260040161060f90611e12565b60405180910390fd5b6005600082815260200190815260200160002060006101000a81549073ffffffffffffffffffffffffffffffffffffffff0219169055807f7cc135e0cebb02c3480ae5d74d377283180a2601f8f644edf7987b009316c63a60405160405180910390a2816040516106899190611e6e565b6040518091039020837fce98eb5e613a31d5e71f87e717d761be9e3920f5e40f7d251789c97e26993aed60405160405180910390a381600890816106cd9190612091565b50505050565b6106db610c3b565b3373ffffffffffffffffffffffffffffffffffffffff166108fc479081150290604051600060405180830381858888f19350505050158015610721573d6000803e3d6000fd5b50565b6009805461073190611eb4565b80601f016020809104026020016040519081016040528092919081815260200182805461075d90611eb4565b80156107aa5780601f1061077f576101008083540402835291602001916107aa565b820191906000526020600020905b81548152906001019060200180831161078d57829003601f168201915b505050505081565b600880546107bf90611eb4565b80601f01602080910402602001604051908101604052809291908181526020018280546107eb90611eb4565b80156108385780601f1061080d57610100808354040283529160200191610838565b820191906000526020600020905b81548152906001019060200180831161081b57829003601f168201915b505050505081565b600760009054906101000a900473ffffffffffffffffffffffffffffffffffffffff1673ffffffffffffffffffffffffffffffffffffffff163373ffffffffffffffffffffffffffffffffffffffff16146108d0576040517f08c379a00000000000000000000000000000000000000000000000000000000081526004016108c790612262565b60405180910390fd5b6000600660009054906101000a900473ffffffffffffffffffffffffffffffffffffffff16905033600660006101000a81548173ffffffffffffffffffffffffffffffffffffffff021916908373ffffffffffffffffffffffffffffffffffffffff1602179055506000600760006101000a81548173ffffffffffffffffffffffffffffffffffffffff021916908373ffffffffffffffffffffffffffffffffffffffff1602179055503373ffffffffffffffffffffffffffffffffffffffff168173ffffffffffffffffffffffffffffffffffffffff167f8be0079c531659141344cd1fd0a4f28419497f9722a3daafe3b4186f6b6457e060405160405180910390a350565b6000600660009054906101000a900473ffffffffffffffffffffffffffffffffffffffff16905090565b610a09610c3b565b6000610a13610c11565b90508073ffffffffffffffffffffffffffffffffffffffff1663a9059cbb338373ffffffffffffffffffffffffffffffffffffffff166370a08231306040518263ffffffff1660e01b8152600401610a6b91906117fc565b602060405180830381865afa158015610a88573d6000803e3d6000fd5b505050506040513d601f19601f82011682018060405250810190610aac9190612178565b6040518363ffffffff1660e01b8152600401610ac9929190612282565b6020604051808303816000875af1158015610ae8573d6000803e3d6000fd5b505050506040513d601f19601f82011682018060405250810190610b0c91906122e3565b610b4b576040517f08c379a0000000000000000000000000000000000000000000000000000000008152600401610b429061235c565b60405180910390fd5b50565b610b56610c3b565b610b6284848484610e23565b50505050565b610b70610c3b565b6000610b8b610b7e84610ccd565b631fb5b88360e01b610cf6565b9050610bd76040518060400160405280600581526020017f656d61696c0000000000000000000000000000000000000000000000000000008152508383610d269092919063ffffffff16565b610bf68482670de0b6b3a76400006001610bf191906121d4565b610d59565b5050505050565b610c05610c3b565b610c0e81610f36565b50565b6000600260009054906101000a900473ffffffffffffffffffffffffffffffffffffffff16905090565b600660009054906101000a900473ffffffffffffffffffffffffffffffffffffffff1673ffffffffffffffffffffffffffffffffffffffff163373ffffffffffffffffffffffffffffffffffffffff1614610ccb576040517f08c379a0000000000000000000000000000000000000000000000000000000008152600401610cc2906123c8565b60405180910390fd5b565b6000808290506000815103610ce8576000801b915050610cf1565b60208301519150505b919050565b610cfe611734565b610d06611734565b610d1d84308584611064909392919063ffffffff16565b91505092915050565b610d3d82846080015161111490919063ffffffff16565b610d5481846080015161111490919063ffffffff16565b505050565b6000806004549050600181610d6e91906123e8565b6004819055506000633c6d41b960e01b600080876000015188604001518660028b6080015160000151604051602401610dad979695949392919061248f565b604051602081830303815290604052907bffffffffffffffffffffffffffffffffffffffffffffffffffffffff19166020820180517bffffffffffffffffffffffffffffffffffffffffffffffffffffffff83818316178352505050509050610e1886838684611139565b925050509392505050565b60006005600086815260200190815260200160002060009054906101000a900473ffffffffffffffffffffffffffffffffffffffff1690506005600086815260200190815260200160002060006101000a81549073ffffffffffffffffffffffffffffffffffffffff0219169055847fe1fe3afa0f7f761ff0a8b89086790efd5140d2907ebd5b7ff6bfcb5e075fd4c560405160405180910390a28073ffffffffffffffffffffffffffffffffffffffff16636ee4d553868686866040518563ffffffff1660e01b8152600401610efd9493929190612505565b600060405180830381600087803b158015610f1757600080fd5b505af1158015610f2b573d6000803e3d6000fd5b505050505050505050565b3373ffffffffffffffffffffffffffffffffffffffff168173ffffffffffffffffffffffffffffffffffffffff1603610fa4576040517f08c379a0000000000000000000000000000000000000000000000000000000008152600401610f9b90612596565b60405180910390fd5b80600760006101000a81548173ffffffffffffffffffffffffffffffffffffffff021916908373ffffffffffffffffffffffffffffffffffffffff1602179055508073ffffffffffffffffffffffffffffffffffffffff16600660009054906101000a900473ffffffffffffffffffffffffffffffffffffffff1673ffffffffffffffffffffffffffffffffffffffff167fed8889f560326eb138920d842192f0eb3dd22b4f139c87a2c57538e05bae127860405160405180910390a350565b61106c611734565b61107c85608001516101006112ce565b508385600001818152505082856020019073ffffffffffffffffffffffffffffffffffffffff16908173ffffffffffffffffffffffffffffffffffffffff16815250508185604001907bffffffffffffffffffffffffffffffffffffffffffffffffffffffff191690817bffffffffffffffffffffffffffffffffffffffffffffffffffffffff191681525050849050949350505050565b6111218260038351611338565b61113481836114bd90919063ffffffff16565b505050565b6000308460405160200161114e929190612665565b604051602081830303815290604052805190602001209050846005600083815260200190815260200160002060006101000a81548173ffffffffffffffffffffffffffffffffffffffff021916908373ffffffffffffffffffffffffffffffffffffffff160217905550807fb5e6e01e79f91267dc17b4e6314d5d4d03593d2ceee0fbb452b750bd70ea5af960405160405180910390a2600260009054906101000a900473ffffffffffffffffffffffffffffffffffffffff1673ffffffffffffffffffffffffffffffffffffffff16634000aea08685856040518463ffffffff1660e01b815260040161124493929190612691565b6020604051808303816000875af1158015611263573d6000803e3d6000fd5b505050506040513d601f19601f8201168201806040525081019061128791906122e3565b6112c6576040517f08c379a00000000000000000000000000000000000000000000000000000000081526004016112bd90612741565b60405180910390fd5b949350505050565b6112d66117a1565b60006020836112e59190612790565b14611311576020826112f79190612790565b602061130391906127c1565b8261130e91906123e8565b91505b81836020018181525050604051808452600081528281016020016040525082905092915050565b60178167ffffffffffffffff161161136f576113698160058460ff16901b60ff1617846114df90919063ffffffff16565b506114b8565b60ff8167ffffffffffffffff16116113c55761139e601860058460ff16901b17846114df90919063ffffffff16565b506113bf8167ffffffffffffffff166001856114ff9092919063ffffffff16565b506114b7565b61ffff8167ffffffffffffffff161161141c576113f5601960058460ff16901b17846114df90919063ffffffff16565b506114168167ffffffffffffffff166002856114ff9092919063ffffffff16565b506114b6565b63ffffffff8167ffffffffffffffff16116114755761144e601a60058460ff16901b17846114df90919063ffffffff16565b5061146f8167ffffffffffffffff166004856114ff9092919063ffffffff16565b506114b5565b611492601b60058460ff16901b17846114df90919063ffffffff16565b506114b38167ffffffffffffffff166008856114ff9092919063ffffffff16565b505b5b5b5b505050565b6114c56117a1565b6114d783846000015151848551611521565b905092915050565b6114e76117a1565b6114f78384600001515184611610565b905092915050565b6115076117a1565b611518848560000151518585611666565b90509392505050565b6115296117a1565b825182111561153757600080fd5b8460200151828561154891906123e8565b111561157d5761157c85600261156d8860200151888761156891906123e8565b6116f4565b61157791906121d4565b611710565b5b60008086518051876020830101935080888701111561159c5787860182525b60208701925050505b602084106115e357805182526020826115be91906123e8565b91506020816115cd91906123e8565b90506020846115dc91906127c1565b93506115a5565b60006001856020036101000a03905080198251168184511681811785525050508692505050949350505050565b6116186117a1565b8360200151831061163e5761163d846002866020015161163891906121d4565b611710565b5b83518051602085830101848153818603611659576001820183525b5050508390509392505050565b61166e6117a1565b8460200151848361167f91906123e8565b11156116a7576116a6856002868561169791906123e8565b6116a191906121d4565b611710565b5b60006001836101006116b99190612928565b6116c391906127c1565b905085518386820101858319825116178152815185880111156116e65784870182525b505085915050949350505050565b6000818311156117065782905061170a565b8190505b92915050565b60008260000151905061172383836112ce565b5061172e83826114bd565b50505050565b6040518060a0016040528060008019168152602001600073ffffffffffffffffffffffffffffffffffffffff16815260200160007bffffffffffffffffffffffffffffffffffffffffffffffffffffffff191681526020016000815260200161179b6117a1565b81525090565b604051806040016040528060608152602001600081525090565b600073ffffffffffffffffffffffffffffffffffffffff82169050919050565b60006117e6826117bb565b9050919050565b6117f6816117db565b82525050565b600060208201905061181160008301846117ed565b92915050565b6000604051905090565b600080fd5b600080fd5b6000819050919050565b61183e8161182b565b811461184957600080fd5b50565b60008135905061185b81611835565b92915050565b600080fd5b600080fd5b6000601f19601f8301169050919050565b7f4e487b7100000000000000000000000000000000000000000000000000000000600052604160045260246000fd5b6118b48261186b565b810181811067ffffffffffffffff821117156118d3576118d261187c565b5b80604052505050565b60006118e6611817565b90506118f282826118ab565b919050565b600067ffffffffffffffff8211156119125761191161187c565b5b61191b8261186b565b9050602081019050919050565b82818337600083830152505050565b600061194a611945846118f7565b6118dc565b90508281526020810184848401111561196657611965611866565b5b611971848285611928565b509392505050565b600082601f83011261198e5761198d611861565b5b813561199e848260208601611937565b91505092915050565b600080604083850312156119be576119bd611821565b5b60006119cc8582860161184c565b925050602083013567ffffffffffffffff8111156119ed576119ec611826565b5b6119f985828601611979565b9150509250929050565b6000819050919050565b611a1681611a03565b82525050565b6000604082019050611a316000830185611a0d565b611a3e6020830184611a0d565b9392505050565b611a4e816117db565b8114611a5957600080fd5b50565b600081359050611a6b81611a45565b92915050565b600080600080600060a08688031215611a8d57611a8c611821565b5b6000611a9b88828901611a5c565b955050602086013567ffffffffffffffff811115611abc57611abb611826565b5b611ac888828901611979565b945050604086013567ffffffffffffffff811115611ae957611ae8611826565b5b611af588828901611979565b935050606086013567ffffffffffffffff811115611b1657611b15611826565b5b611b2288828901611979565b925050608086013567ffffffffffffffff811115611b4357611b42611826565b5b611b4f88828901611979565b9150509295509295909350565b600081519050919050565b600082825260208201905092915050565b60005b83811015611b96578082015181840152602081019050611b7b565b60008484015250505050565b6000611bad82611b5c565b611bb78185611b67565b9350611bc7818560208601611b78565b611bd08161186b565b840191505092915050565b60006020820190508181036000830152611bf58184611ba2565b905092915050565b611c0681611a03565b8114611c1157600080fd5b50565b600081359050611c2381611bfd565b92915050565b60007fffffffff0000000000000000000000000000000000000000000000000000000082169050919050565b611c5e81611c29565b8114611c6957600080fd5b50565b600081359050611c7b81611c55565b92915050565b60008060008060808587031215611c9b57611c9a611821565b5b6000611ca98782880161184c565b9450506020611cba87828801611c14565b9350506040611ccb87828801611c6c565b9250506060611cdc87828801611c14565b91505092959194509250565b600080600060608486031215611d0157611d00611821565b5b6000611d0f86828701611a5c565b935050602084013567ffffffffffffffff811115611d3057611d2f611826565b5b611d3c86828701611979565b925050604084013567ffffffffffffffff811115611d5d57611d5c611826565b5b611d6986828701611979565b9150509250925092565b600060208284031215611d8957611d88611821565b5b6000611d9784828501611a5c565b91505092915050565b7f536f75726365206d75737420626520746865206f7261636c65206f662074686560008201527f2072657175657374000000000000000000000000000000000000000000000000602082015250565b6000611dfc602883611b67565b9150611e0782611da0565b604082019050919050565b60006020820190508181036000830152611e2b81611def565b9050919050565b600081905092915050565b6000611e4882611b5c565b611e528185611e32565b9350611e62818560208601611b78565b80840191505092915050565b6000611e7a8284611e3d565b915081905092915050565b7f4e487b7100000000000000000000000000000000000000000000000000000000600052602260045260246000fd5b60006002820490506001821680611ecc57607f821691505b602082108103611edf57611ede611e85565b5b50919050565b60008190508160005260206000209050919050565b60006020601f8301049050919050565b600082821b905092915050565b600060088302611f477fffffffffffffffffffffffffffffffffffffffffffffffffffffffffffffffff82611f0a565b611f518683611f0a565b95508019841693508086168417925050509392505050565b6000819050919050565b6000611f8e611f89611f8484611a03565b611f69565b611a03565b9050919050565b6000819050919050565b611fa883611f73565b611fbc611fb482611f95565b848454611f17565b825550505050565b600090565b611fd1611fc4565b611fdc818484611f9f565b505050565b5b8181101561200057611ff5600082611fc9565b600181019050611fe2565b5050565b601f8211156120455761201681611ee5565b61201f84611efa565b8101602085101561202e578190505b61204261203a85611efa565b830182611fe1565b50505b505050565b600082821c905092915050565b60006120686000198460080261204a565b1980831691505092915050565b60006120818383612057565b9150826002028217905092915050565b61209a82611b5c565b67ffffffffffffffff8111156120b3576120b261187c565b5b6120bd8254611eb4565b6120c8828285612004565b600060209050601f8311600181146120fb57600084156120e9578287015190505b6120f38582612075565b86555061215b565b601f19841661210986611ee5565b60005b828110156121315784890151825560018201915060208501945060208101905061210c565b8683101561214e578489015161214a601f891682612057565b8355505b6001600288020188555050505b505050505050565b60008151905061217281611bfd565b92915050565b60006020828403121561218e5761218d611821565b5b600061219c84828501612163565b91505092915050565b7f4e487b7100000000000000000000000000000000000000000000000000000000600052601160045260246000fd5b60006121df82611a03565b91506121ea83611a03565b92508282026121f881611a03565b9150828204841483151761220f5761220e6121a5565b5b5092915050565b7f4d7573742062652070726f706f736564206f776e657200000000000000000000600082015250565b600061224c601683611b67565b915061225782612216565b602082019050919050565b6000602082019050818103600083015261227b8161223f565b9050919050565b600060408201905061229760008301856117ed565b6122a46020830184611a0d565b9392505050565b60008115159050919050565b6122c0816122ab565b81146122cb57600080fd5b50565b6000815190506122dd816122b7565b92915050565b6000602082840312156122f9576122f8611821565b5b6000612307848285016122ce565b91505092915050565b7f556e61626c6520746f207472616e73666572204c696e6b000000000000000000600082015250565b6000612346601783611b67565b915061235182612310565b602082019050919050565b6000602082019050818103600083015261237581612339565b9050919050565b7f4f6e6c792063616c6c61626c65206279206f776e657200000000000000000000600082015250565b60006123b2601683611b67565b91506123bd8261237c565b602082019050919050565b600060208201905081810360008301526123e1816123a5565b9050919050565b60006123f382611a03565b91506123fe83611a03565b9250828201905080821115612416576124156121a5565b5b92915050565b6124258161182b565b82525050565b61243481611c29565b82525050565b600081519050919050565b600082825260208201905092915050565b60006124618261243a565b61246b8185612445565b935061247b818560208601611b78565b6124848161186b565b840191505092915050565b600060e0820190506124a4600083018a6117ed565b6124b16020830189611a0d565b6124be604083018861241c565b6124cb606083018761242b565b6124d86080830186611a0d565b6124e560a0830185611a0d565b81810360c08301526124f78184612456565b905098975050505050505050565b600060808201905061251a600083018761241c565b6125276020830186611a0d565b612534604083018561242b565b6125416060830184611a0d565b95945050505050565b7f43616e6e6f74207472616e7366657220746f2073656c66000000000000000000600082015250565b6000612580601783611b67565b915061258b8261254a565b602082019050919050565b600060208201905081810360008301526125af81612573565b9050919050565b60006125d16125cc6125c7846117bb565b611f69565b6117bb565b9050919050565b60006125e3826125b6565b9050919050565b60006125f5826125d8565b9050919050565b60008160601b9050919050565b6000612614826125fc565b9050919050565b600061262682612609565b9050919050565b61263e612639826125ea565b61261b565b82525050565b6000819050919050565b61265f61265a82611a03565b612644565b82525050565b6000612671828561262d565b601482019150612681828461264e565b6020820191508190509392505050565b60006060820190506126a660008301866117ed565b6126b36020830185611a0d565b81810360408301526126c58184612456565b9050949350505050565b7f756e61626c6520746f207472616e73666572416e6443616c6c20746f206f726160008201527f636c650000000000000000000000000000000000000000000000000000000000602082015250565b600061272b602383611b67565b9150612736826126cf565b604082019050919050565b6000602082019050818103600083015261275a8161271e565b9050919050565b7f4e487b7100000000000000000000000000000000000000000000000000000000600052601260045260246000fd5b600061279b82611a03565b91506127a683611a03565b9250826127b6576127b5612761565b5b828206905092915050565b60006127cc82611a03565b91506127d783611a03565b92508282039050818111156127ef576127ee6121a5565b5b92915050565b60008160011c9050919050565b6000808291508390505b600185111561284c57808604811115612828576128276121a5565b5b60018516156128375780820291505b8081029050612845856127f5565b945061280c565b94509492505050565b6000826128655760019050612921565b816128735760009050612921565b81600181146128895760028114612893576128c2565b6001915050612921565b60ff8411156128a5576128a46121a5565b5b8360020a9150848211156128bc576128bb6121a5565b5b50612921565b5060208310610133831016604e8410600b84101617156128f75782820a9050838111156128f2576128f16121a5565b5b612921565b6129048484846001612802565b9250905081840481111561291b5761291a6121a5565b5b81810290505b9392505050565b600061293382611a03565b915061293e83611a03565b925061296b7fffffffffffffffffffffffffffffffffffffffffffffffffffffffffffffffff8484612855565b90509291505056fea26469706673582212204dedf2cb15fcd8430be043f2c40125dd78cfbb3ca91919ea1c855555012e56a764736f6c63430008110033",
  "linkReferences": {},
  "deployedLinkReferences": {}
}